:100000000C94B5130C94DF130C94DF130C94DF13D2
:100010000C94DF130C94DF130C94DF130C94DF1398
:100020000C94DF130C94DF130C94DF130C94DF1388
:100030000C94DF130C9441A20C94DF130C94DF1387
:100040000C94DF130C943DAE0C946AB50C94DF1342
:100050000C945C360C9452360C94DF130C94DF1322
:100060000C94DF130C94DF130C94DF130C94DF1348
:100070000C94DF130C94DF130C94DF130C94DF1338
:100080000C94BD2E0C94DF130C94DF138E9B919B6C
:10009000849B889BA89BA89B959B999B9F9BA39BBC
:1000A0000B9F109F159F1F9F4D9F4D9F299F319F15
:1000B000399F439F56C515C44CC492C54CC44CC40B
:1000C0004CC44CC44CC44CC44CC44CC44CC44CC4B0
:1000D0004CC44CC44CC44CC44CC44CC44CC44CC4A0
:1000E0004CC44CC44CC44CC44CC44CC44CC44CC490
:1000F0008CC54CC44CC44CC44CC44CC44CC44CC43F
:100100004CC465C54CC44CC44CC44CC44CC44CC455
:100110004CC44CC44CC44CC4A9C549C44E414E49FE
:100120004E495459494E46CDCCCC3D0AD7233C17B5
:10013000B7D13877CC2B329595E6241FB14F0A0002
:100140000020410000C84200401C4620BCBE4CCAF2
:100150001B0E5AAEC59D7400407A10F35A00A0726F
:100160004E18090010A5D4E80000E87648170000F2
:10017000E40B54020000CA9A3B000000E1F50500C0
:100180000080969800000040420F000000A0860109
:10019000000000102700000000E8030000000064D9
:1001A00000000000000A0000000000010000000044
:1001B000002C76D888DC674F0823DFC1DFAE59E119
:1001C000B1B796E5E3E453C63AE651997696E8E688
:1001D000C28426EB898C9B62ED407C6FFCEFBC9C5B
:1001E0009F40F2BAA56FA5F490055A2AF75C936B6D
:1001F0006CF9676DC11BFCE0E40D47FEF520E6B528
:1002000000D0ED902E0300943577050080841E0801
:100210000000204E0A000000C80C333333330F981F
:100220006E12831141EF8D2114893BE65516CFFEE6
:10023000E6DB18D1844B381BF77C1D901DA4BBE472
:1002400024203284725E228100C9F124ECA1E53DB4
:1002500027434F4D4D554E49434154494F4E00445D
:10026000525952554E004552524F525300494E4634
:100270004F004543484F006F6B003F5A206F757425
:10028000206F662072616E67652028003F59206FDD
:100290007574206F662072616E676520282D0020BE
:1002A000746F20003F58206F7574206F6620726154
:1002B0006E676520282D0050726F6265204F66665C
:1002C000736574205800454550524F4D204F4B0ADE
:1002D000004F666673657473204170706C69656465
:1002E000004572723A20546F6F206661722100548B
:1002F0006F6F206661722066726F6D207265666531
:1003000072656E636520706F696E740A004D3432D9
:100310003120696E636F72726563742070617261FF
:100320006D657465722075736167650A0064697331
:100330000043290A0061626C656420286D696E20A3
:1003400074656D702000436F6C64206578747275FD
:10035000646573206172652000496E76616C696422
:100360002065787472756465720A0020643A002012
:10037000693A0020703A0050726F6265204F6666DD
:10038000736574205A0020536572766F20002046F2
:100390006C6F773A200046523A0020204D61783A3F
:1003A000200020204D696E3A2000536F667420654E
:1003B0006E6473746F70733A20003F4A206F7574D7
:1003C000206F662072616E67652028302E303120E4
:1003D000746F20302E33290A00205400205200412F
:1003E0006363656C65726174696F6E3A2050004D8D
:1003F00031343520533C696E6465783E206F7574E6
:10040000206F662072616E67652028302D31290AC1
:10041000002F2F20004348414D4245525F54454D27
:10042000504552415455524500424142595354455A
:100430005050494E47004D4F54494F4E5F4D4F4429
:10044000455300544845524D414C5F50524F54451E
:100450004354494F4E004C4F4E475F46494C454E22
:10046000414D45004155544F5245504F52545F53F2
:10047000445F535441545553005344434152440044
:1004800050524F4D50545F535550504F52540045A9
:100490004D455247454E43595F50415253455200D6
:1004A000434153455F4C494748545F42524947488E
:1004B000544E45535300544F47474C455F4C4947B2
:1004C00048545300534F4654574152455F504F577D
:1004D0004552004255494C445F50455243454E54A5
:1004E000004C4556454C494E475F44415441005AE3
:1004F0005F50524F4245004155544F4C4556454C74
:10050000005052494E545F4A4F420050524F47529A
:10051000455353004155544F5245504F52545F5428
:10052000454D5000564F4C554D455452494300429D
:10053000494E4152595F46494C455F5452414E53D2
:100540004645520053455249414C5F584F4E5F5803
:100550004F4646004649524D574152455F4E414D28
:10056000453A4D61726C696E206275676669782DD7
:10057000322E302E7820284A756E203138203230C5
:1005800032302030363A35313A33362920534F5500
:100590005243455F434F44455F55524C3A6874742B
:1005A00070733A2F2F6769746875622E636F6D2FB1
:1005B0004D61726C696E4669726D776172652F4D1F
:1005C00061726C696E2050524F544F434F4C5F56CE
:1005D000455253494F4E3A312E30204D4143484900
:1005E0004E455F545950453A456E6465722D35202D
:1005F00050726F2045585452554445525F434F55F1
:100600004E543A3120555549443A63656465326128
:1006100032662D343161322D343734382D39623120
:10062000322D6335356336326633363766660A00F7
:10063000456E6465722D352050726F204F46462EF0
:10064000004D3131332053004D3131322053687524
:1006500074646F776E006F66660044454255473A92
:100660000050726F7465637465642050696E0A008F
:10067000496E76616C69642050696E204D6F6465C7
:100680000A00256979202569642025696820256983
:100690006D20256973005072696E742074696D65F0
:1006A0003A20004E6F204D6F76652E00436C6963D3
:1006B0006B20746F20526573756D652E2E2E004D64
:1006C00065736820706F696E74206F7574206F6633
:1006D0002072616E67650A005A2050726F62652051
:1006E00050617374204265640A005A2050726F6230
:1006F0006520506173742042656400486F6D652009
:1007000058592066697273740A00486F6D652058E5
:100710005920466972737400536C6565702E2E2ED5
:100720000000005C4300005C430000000072026DAA
:100730000266025F025102000020420000204200D7
:1007400000004100005C4300005C43000096430150
:1007500001FF4572726F722077726974696E67204B
:10076000746F20454550524F4D210A002121204BE6
:10077000494C4C2063617573656420627920746F05
:100780006F206D75636820696E616374697665209A
:1007900074696D65202D2063757272656E742063B7
:1007A0006F6D6D616E643A20004D343130004D3113
:1007B0003132004D313038004E6F20436865636B35
:1007C00073756D2077697468206C696E65206E752D
:1007D0006D6265722C204C617374204C696E653AB1
:1007E0002000636865636B73756D206D69736D615F
:1007F0007463682C204C617374204C696E653A20D8
:10080000004C696E65204E756D62657220697320BB
:100810006E6F74204C617374204C696E65204E7548
:100820006D6265722B312C204C617374204C696EA3
:10083000653A20004D31313000627573793A20708D
:10084000617573656420666F7220696E7075740AD5
:1008500000627573793A2070617573656420666F04
:100860007220757365720A00627573793A2070722E
:100870006F63657373696E670A00506C65617365B9
:10088000205265736574005052494E5445522048B9
:10089000414C5445440025533A202553004B494CC4
:1008A0004C45442E20005072696E74657220686158
:1008B0006C7465642E206B696C6C28292063616CF4
:1008C0006C6564210A006563686F3A004572726F57
:1008D000723A0042696C696E656172204C6576659A
:1008E0006C696E6720477269643A0A000F150E1230
:1008F00016170E1303021A1401000E0DFF180C0434
:100900000C19000153544F505045442E2000507292
:10091000696E7465722073746F707065642064759D
:100920006520746F206572726F72732E204669782D
:1009300020746865206572726F7220616E64207524
:100940007365204D39393920746F20726573746175
:1009500072742E202854656D7065726174757265AD
:100960002069732072657365742E20536574206945
:100970007420616674657220726573746172746943
:100980006E67290A0021212053544F502063616C67
:100990006C65642062656361757365206F662042D3
:1009A0004C546F756368206572726F72202D2072CF
:1009B0006573746172742077697468204D393939B0
:1009C0000A004F46460A004661646520486569672B
:1009D00068742000426564204C6576656C696E67BA
:1009E00020004661696C656420746F20656E6162E9
:1009F0006C6520426564204C6576656C696E670A9B
:100A000000496E76616C6964206D6573682E0A001A
:100A100050726F62696E6720506F696E7400255363
:100A20002025692F25690050726F62696E67206DFD
:100A300065736820706F696E7420002028445259D5
:100A400052554E2900473239204175746F20426556
:100A500064204C6576656C696E67003F20284C2CDD
:100A6000522C462C4229206F7574206F6620626FCD
:100A7000756E64732E0A003F2856296572626F7383
:100A800065206C6576656C20696D706C6175736945
:100A9000626C652028302D34292E0A0042616420C2
:100AA0005A2076616C75650A004E6F2062696C6928
:100AB0006E65617220677269640A00204D393220C8
:100AC000580020496E76616C69642065787472758F
:100AD00064657220004361703A00526573656E640C
:100AE0003A200020573A00452025530042656420F3
:100AF000436F6F6C696E672E2E2E0042656420482E
:100B0000656174696E672E2E2E0023646566696EBA
:100B1000652044454641554C545F004B6420004BD2
:100B20006920004B702000504944204175746F7457
:100B3000756E652066696E697368656421205075FD
:100B40007420746865206C617374204B702C204B8A
:100B50006920616E64204B6420636F6E7374616EF4
:100B600074732066726F6D2062656C6F7720696E9A
:100B7000746F20436F6E66696775726174696F6E1A
:100B80002E680A00504944204175746F74756E6573
:100B9000206661696C6564212074696D656F757488
:100BA0000A000A20436C6173736963205049442032
:100BB0000A00204B643A2000204B693A2000204B69
:100BC000703A20002054753A2000204B753A2000DE
:100BD000206D61783A2000206D696E3A2000206413
:100BE0003A200020626961733A2000504944204154
:100BF00075746F74756E652073746172740A005039
:100C00004944204175746F74756E65206661696C26
:100C10006564212054656D7065726174757265201C
:100C2000746F6F20686967680A00504944204175F5
:100C3000746F74756E65206661696C65642120420D
:100C40006164206578747275646572206E756D627A
:100C500065720A0000FE0003FF8007C7C00701E0BD
:100C60000000E00000F00000700400700E00701F33
:100C700000703F80F00E00E00F01E007C7C003FFE7
:100C80008000FE0000FE0003FF8007C7C00F01E0E8
:100C90000E00E03F80F01F00700E00700400700036
:100CA00000700000F00000E00701E007C7C003FF8C
:100CB0008000FE000E000E000E000E000E000E0062
:100CC0000E000E007FC03F801F000E0004000400D5
:100CD0000E001F003F807FC00E000E000E000E00B1
:100CE0000E000E000E000E00FFFFFF7F80FFC0FF12
:100CF000C0FFC07F807F80FFC0FFC0FFC03F001EDD
:100D0000000C0046696C2E204469612E0045206964
:100D10006E206D6DC2B3004D333033205531204508
:100D200025692053256900504944204175746F742A
:100D3000756E65202A005049442D44202A005049F0
:100D4000442D49202A005049442D50202A002008D3
:100D50002046616374002008204D6178002008203F
:100D60004D696E004F6666004F6E004175746F747A
:100D7000656D700020204D3835312058005A2D50B7
:100D8000726F6265204F66667365740020204D3374
:100D900030312050005049442073657474696E6787
:100DA000733A0020460020480020204D3134352081
:100DB00053004D6174657269616C2068656174757A
:100DC0007020706172616D65746572733A002020E5
:100DD000473239205720490020204D3432302053EB
:100DE000004175746F20426564204C6576656C69BE
:100DF0006E673A0020204D323036205800486F6D23
:100E000065206F66667365743A00204A0020204DA5
:100E1000323035204200416476616E6365643A2069
:100E2000423C6D696E5F7365676D656E745F746972
:100E30006D655F75733E20533C6D696E5F666565D9
:100E400064726174653E20543C6D696E5F747261BA
:100E500076656C5F66656564726174653E204A3CC8
:100E60006A756E635F6465763E0020204D323034D3
:100E7000205000416363656C65726174696F6E2018
:100E800028756E6974732F7332293A20503C707242
:100E9000696E745F616363656C3E20523C72657479
:100EA000726163745F616363656C3E20543C74726D
:100EB0006176656C5F616363656C3E0020204D3236
:100EC00030312058004D6178696D756D2041636344
:100ED000656C65726174696F6E2028756E697473D4
:100EE0002F7332293A0020450020204D3230332024
:100EF00058004D6178696D756D2066656564726135
:100F00007465732028756E6974732F73293A0053C2
:100F1000746570732070657220756E69743A002074
:100F2000440020204D32303020530020446973614A
:100F3000626C65640A0046696C616D656E7420734D
:100F4000657474696E67733A0020204D313439201E
:100F500043203B20556E69747320696E2043656C95
:100F6000736975730A0020286D6D290020204732AF
:100F700031202020203B20556E69747320696E203B
:100F80006D6D00486F6D696E67204661696C6564C0
:100F9000006F70656E005452494747455245440002
:100FA0007A5F6D696E00795F6D617800785F6D6161
:100FB00078005265706F7274696E6720656E647335
:100FC000746F70207374617475730A0020746F6F8E
:100FD000206C6F6E6720657874727573696F6E2010
:100FE00070726576656E7465640A0020636F6C6468
:100FF00020657874727573696F6E2070726576659E
:101000006E7465640A0020453A00205A3A0020595F
:101010003A00454550524F4D2056657273696F6EC8
:10102000204572726F7200454550524F4D20496EF7
:10103000646578204572726F7200454550524F4D7D
:1010400020435243204572726F72003F0049676E21
:101050006F726500496E697469616C697A652045D3
:101060004550524F4D0053657474696E6773205339
:10107000746F7265640053657474696E677320538E
:10108000746F7265642028000000000000000000FA
:101090000000000020436F756E7420583A004D31F7
:1010A0003036205000453100626564002C20737991
:1010B0007374656D2073746F70706564212048656A
:1010C000617465725F49443A200048656174696ED5
:1010D00067204661696C65640048656174696E6784
:1010E000206661696C65640024F4D43050C38E209E
:1010F000C2A24017828B7011127A910D816CD90AAD
:10110000A861E108C7586607615143061E4B5D059B
:10111000C145A7041A411104093D980371393103EF
:101120004036DB0265339102D4305402802E1D021A
:10113000632CEE01752AC501B028A001102781019A
:101140008F2564012B244B01E0223401AC211F01C7
:101150008D200D01801FFC00841EED00971DDF0017
:10116000B81CD200E61BC600201BBC00641AB200EB
:10117000B219A8000A19A0006A189900D1179100A5
:1011800040178B00B516840031167E00B315790028
:101190003A157300C7146F0058146A00EE13660006
:1011A0008813630025135E00C7125B006C125700A2
:1011B00015125400C111510070114F0021114B0044
:1011C000D61049008D10470046104400021042001E
:1011D000C00F4000800F3E00420F3C00060F3B0056
:1011E000CB0E3800930E37005C0E3500270E34000E
:1011F000F30D3200C10D3100900D3000600D2E0056
:10120000320D2D00050D2C00D90C2B00AE0C290041
:10121000850C29005C0C2700350C27000E0C2600DD
:10122000E80B2400C40B2400A00B23007D0B23003B
:101230005A0B2100390B2100180B2000F80A1F005F
:10124000D90A1E00BB0A1E009D0A1D00800A1D004F
:10125000630A1C00470A1B002C0A1B00110A1A0013
:10126000F7091A00DD091900C4091900AB091900B2
:10127000920917007B091800630917004C09160032
:1012800036091600200916000A091500F508150090
:10129000E0081400CC081400B8081400A4081400D6
:1012A000900813007D0812006B0813005808120004
:1012B000460812003408110023081100120811001A
:1012C00001081100F0071000E0071000D00710001F
:1012D000C0071000B0070F00A107100091070E0013
:1012E00083070F0074070F0065070E0057070E00F5
:1012F00049070E003B070D002E070E0020070D00CA
:1013000013070D0006070D00F9060C00ED060D0091
:10131000E0060C00D4060C00C8060C00BC060C004D
:10132000B0060C00A4060B0099060C008D060B00FD
:1013300082060B0077060B006C060B0061060A00A4
:1013400057060B004C060A0042060A0038060A003F
:101350002E060A0024060A001A060A0010060900D2
:1013600007060A00FD050900F4050900EB05090060
:10137000E2050900D9050900D0050900C7050900E3
:10138000BE050900B5050800AD050800A505090062
:101390009C050800940508008C05080084050800D9
:1013A0007C050800740508006C0507006505080049
:1013B0005D050700560508004E05070047050700B4
:1013C0004005080038050700310507002A05070019
:1013D000230507001C050600160507000F0507007A
:1013E0000805060002050700FB040600F5040700D7
:1013F000EE040600E8040600E2040700DB04060031
:10140000D5040600CF040600C9040600C304060084
:10141000BD040600B7040600B1040500AC040600D4
:10142000A6040600A00405009B0406009504050020
:10143000900406008A040500850405008004060067
:101440007A04050075040500700405006B040500AE
:1014500066040500610405005C04050057040500EE
:10146000520405004D04050048040500430405002E
:101470003E0404003A04050035040500300404006D
:101480002C04050027040400230405001E040400A6
:101490001A04040016040500110404000D040400DD
:1014A000090405000404040000040400FC03040013
:1014B000F8030400F4030400F0030400EC03040048
:1014C000E8030400E4030400E0030400DC03040078
:1014D000D8030400D4030400D0030400CC030400A8
:1014E000C8030300C503030024F404D9201BC40C63
:1014F0005C0E9804C4095F0265077101F405F900E8
:10150000FB04B30048048700C10369005803550079
:1015100003034500BE023A008402310053022A0050
:101520002902250004022000E4011C00C801190062
:10153000AF0117009801140084011300710110001D
:101540006101100051010E0043010D0036010B0036
:101550002B010B0020010B00150109000C010900F3
:1015600003010800FB000800F3000800EB0007007F
:10157000E4000600DE000600D8000600D2000600E7
:10158000CC000500C7000500C2000500BD00040036
:10159000B9000400B5000400B1000400AD0004006F
:1015A000A9000400A5000300A20003009F0004009E
:1015B0009B000300980003009500020093000300C5
:1015C000900003008D0002008B00030088000200E1
:1015D0008600020084000300810002007F000200F8
:1015E0007D0002007B00020079000200770001000C
:1015F0007600020074000200720001007100020017
:101600006F0002006D0001006C0002006A00010022
:10161000690002006700010066000100650001002A
:10162000640002006200010061000100600001002E
:101630005F0002005D0001005C0001005B00010032
:101640005A00010059000100580001005700010034
:101650005600010055000100540001005300000035
:101660005300010052000100510001005000010030
:101670004F0001004E0000004E0001004D0001002F
:101680004C0001004B0000004B0001004A0001002B
:101690004900010048000000480001004700010027
:1016A0004600000046000100450000004500010022
:1016B000440001004300000043000100420000001C
:1016C0004200010041000000410001004000010013
:1016D0003F0000003F0001003E0000003E0001000E
:1016E0003D0000003D0001003C0000003C00000007
:1016F0003C0001003B0000003B0001003A000000FC
:101700003A000100390000003900010038000000F3
:1017100038000000380001003700000037000100E9
:1017200036000000360000003600010035000000E1
:1017300035000000350001003400000034000000D6
:1017400034000100330000003300000033000100CA
:1017500032000000320000003200010031000000C1
:1017600031000000310001003000000030000000B6
:10177000300001002F0000002F0000002F000000AB
:101780002F0001002E0000002E0000002E0001009E
:101790002D0000002D0000002D0000002D00010094
:1017A0002C0000002C0000002C0000002C00010088
:1017B0002B0000002B0000002B0000002B0001007C
:1017C0002A0000002A0000002A0000002A00010070
:1017D0002900000029000000290000002900000065
:1017E0002900010028000000280000002800000057
:1017F000280000002800010027000000270000004A
:10180000270000002700000027000100260000003C
:10181000260000002600000026000000260001002F
:101820002500000025000000250000002500000024
:101830002500000025000100240000002400000015
:101840002400000024000000240001002300000008
:1018500023000000230000002300000023000000FC
:1018600023000000230001002200000022000000ED
:1018700022000000220000002200000022000100DF
:1018800021000000210000002100000021000000D4
:1018900021000000210000002100010020000000C4
:1018A00020000000200000002000000020000000B8
:1018B0002000000020000000200001001F000000A8
:1018C0001F0000001F0000001F0000001F0000009C
:1018D0001F0000001F0001001E0000001E0000008D
:1018E0001E0000001E000000043700001E2900003A
:1018F000511B00005810000010090000CC0400002B
:1019000078020000410100001FE02010201020108C
:1019100010201020201020103030084004800300D8
:101920001FE03FF03FF03FF01FE01FE03FF03FF0CF
:101930003FF00FC0078003003FFFF038007030FC1D
:101940003020FC102078102030102C00D02E31D008
:101950002F7BD02F7BD02E31D02C00D020301020E8
:10196000781020FC1030FC303800703FFFF03FFF53
:10197000F03800703186302387102787902F87D06A
:101980002F03D02030102078102078102030102F16
:1019900003D02F87D02787902387103186303800D7
:1019A000703FFFF01FFFF81FFFF8041040020820EF
:1019B0000208200410400820801041001041000857
:1019C00020800410400000001FFFF81FFFF81E00D9
:1019D000800078100080004010A39960701CD4A58E
:1019E00080081094BD0F081094A100481E939D001C
:1019F0003000000000000000000000000380000034
:101A000000024000000002566000000398900000B1
:101A100002109000000210900000021060002020D0
:101A200020202020200054656D70657261747572ED
:101A3000650050726F6265205A204F666673657448
:101A4000004D61696E005072656865617420504C8C
:101A50004120426564005072656865617420504C95
:101A60004120456E64005072656865617420414292
:101A70005320456E64005072656865617420414270
:101A8000532042656400436F6F6C646F776E005043
:101A900072656865617420414253005072656865E3
:101AA000617420504C410046616E2053706565643E
:101AB000004E6F7A7A6C6500466C6F7700436F6EEC
:101AC00066696775726174696F6E0050535500479F
:101AD000656E657269630050726F746F636F6C003E
:101AE000312E3000426175640031313532303000C2
:101AF0004D656C7A692028437265616C6974792937
:101B00000045787472756465727300687474703A15
:101B10002F2F6D61726C696E66772E6F726700454C
:101B20006E6465722D352050726F00323032302D68
:101B300030362D3136006275676669782D322E3069
:101B40002E7800546865726D6973746F7273004209
:101B50006F61726420496E666F005072696E7465C1
:101B60007220496E666F0041626F75742050726911
:101B70006E746572004D6F74696F6E0054756E659A
:101B800000496E666F2053637265656E004D383490
:101B90000044697361626C6520537465707065728E
:101BA0007300473238004175746F20486F6D6500CF
:101BB0004573746570732F6D6D005A73746570731F
:101BC0002F6D6D005973746570732F6D6D005873B0
:101BD000746570732F6D6D00416476616E6365642A
:101BE0002053657474696E67730046696C616D6536
:101BF0006E740053746570732F6D6D00436D643A9D
:101C00002053572D4D6F646500436D643A20537423
:101C10006F7700436D643A204465706C6F790043C0
:101C20006D643A2053656C662D5465737400436D82
:101C3000643A20526573657400526573746F7265FF
:101C40002044656661756C7473004C6F6164205349
:101C5000657474696E67730053746F7265205365A1
:101C60007474696E677300424C546F756368003119
:101C70003235004245443A4550434F5320313030CD
:101C80004B0052756E617761792057617463683AD1
:101C9000204F4E004D61782054656D70003237350D
:101CA000004D696E2054656D700045313A204550F5
:101CB000434F53203130304B0000002100240027D7
:101CC000002A0000002200250028002B0000002030
:101CD000002300260029000202020202020202047E
:101CE00004040404040404030303030303030301BF
:101CF00001010101010101010204081020408001DD
:101D00000204081020408001020408102040808056
:101D100040201008040201000000010200090A002E
:101D2000000000040308070000000000000000009D
:101D3000000000000000004D6F76652025736D6D7A
:101D4000004D6F766520302E316D6D004D6F7665DC
:101D500020316D6D004D6F76652031306D6D004D19
:101D60006F7665204178697300486F74656E6420F2
:101D7000746F6F20636F6C6400457874727564656E
:101D800072004D6F7665205A004D6F7665205900C0
:101D90004D6F76652058005761726E696E673A2004
:101DA000486F6D696E672042756D70204469766971
:101DB000736F72203C20310A000202040000A04030
:101DC0000000A04000000040202D20496E76616C8C
:101DD0006964206578747275646572206E756D62D1
:101DE000657220210A00544845524D414C205255FD
:101DF0004E4157415900546865726D616C205275AF
:101E00006E61776179004572723A204D41585445B0
:101E10004D50004D415854454D50207472696767CC
:101E200065726564004572723A204D494E54454DC5
:101E300050004D494E54454D502074726967676596
:101E400072656400202F002042403A0020403A0092
:101E500070012C0190012701B0012201C0011D0178
:101E6000F00118011002130130020E016002090195
:101E700090020401C002FF000003FA004003F500D5
:101E80008003F000D003EB002004E6007004E100C2
:101E9000E004DC004005D700C005D2004006CD00BC
:101EA000D006C8008007C3003008BE00F008B900A3
:101EB000C009B400B00AAF00B00BAA00D00CA50056
:101EC000000EA000500F9B00C01096005012910011
:101ED00000148C00C0158700B0178200B0197D0077
:101EE000D01B7800001E730040206E009022690015
:101EF000F024640040275F0090295A00E02B550031
:101F0000102E500020304B0010324600E0334100CC
:101F100090353C001037370070383200A0392D0062
:101F2000B03A2800A03B2300603C1E00103D190081
:101F3000903D1400103E0F00703E0A00C03E0500A8
:101F4000003F0000403FFBFF803FF6FFC03FF1FF36
:101F50004572723A207574663820666F6E74206E12
:101F60006F7420696E697469616C697A65642E00AA
:101F70002568753A25303268750025687564202516
:101F8000303268753A253032687500000C0F00FE5B
:101F900007022603BC017FFE08FE08FE05080806AE
:101FA000000040F0C88888987810050808060000EE
:101FB000C0F88888888888F8050505060001203063
:101FC000F830200508080600002070F820202020A6
:101FD000E00509090600FF2070A8A8B888887020CD
:101FE000050606060001E08CEA8C8A0A0509090646
:101FF00000FFF8A88888888888A8F8050A0A0600DB
:10200000FE205050505088A8A88870030303060093
:102010000340A040FFFFFFFFFFFFFFFFFFFFFFFFA9
:10202000FFFFFFFFFFFFFFFFFFFF0000000605FFB0
:102030000107070602008080808080008003030380
:10204000060105A0A0A005060606000050F85050A5
:10205000F8500509090600FF2070A8A07028A87094
:1020600020050707060000C8C810204098980507FB
:102070000706000040A0A040A890680103030602E4
:10208000058080800309090601FF20404080808090
:102090004040200309090601FF80404020202040E5
:1020A000408005070706000020A8702070A82005C2
:1020B00005050600012020F820200203030601FF89
:1020C000C04080050101060003F80202020601007B
:1020D000C0C005070706000008101020404080051A
:1020E0000707060000708898A8C8887003070706CD
:1020F000010040C040404040E00507070600007076
:102100008808102040F8050707060000F80810307E
:1021100008887005070706000010305090F810106E
:10212000050707060000F880F00808887005070713
:10213000060000304080F088887005070706000020
:10214000F808101020202005070706000070888876
:102150007088887005070706000070888878081066
:1021600060020505060100C0C000C0C002060606E8
:1021700001FFC0C000C040800305050601012040EA
:10218000804020050303060002F800F80305050659
:10219000010180402040800507070600007088107C
:1021A000202000200507070600007088B8A8B88026
:1021B00070050707060000708888F888888805077A
:1021C00007060000F04848704848F0050707060079
:1021D0000070888080808870050707060000F0483E
:1021E00048484848F0050707060000F88080F0805E
:1021F00080F8050707060000F88080F080808005E1
:102200000707060000708880809888700507070619
:102210000000888888F8888888030707060100E09E
:102220004040404040E0050707060000381010100D
:102230001090600507070600008890A0C0A0908855
:10224000050707060000808080808080F80507076A
:1022500006000088D8A88888888805070706000037
:102260008888C8A8988888050707060000708888AD
:1022700088888870050707060000F08888F080804D
:102280008005070706000070888888A89068050701
:1022900007060000F08888F0A09088050707060070
:1022A0000070888070088870050707060000F82015
:1022B00020202020200507070600008888888888BD
:1022C0008870050707060000888888885050200518
:1022D000070706000088888888A8A8500507070611
:1022E000000088885020508888050707060000886D
:1022F000885020202020050707060000F80810203D
:102300004080F80309090601FFE08080808080801A
:1023100080E00507070600008040402010100803F9
:1023200009090601FFE020202020202020E00503ED
:10233000030600052050880501010600FEF803038E
:102340000306010580402005050506000070087899
:1023500088780507070600008080F0888888F005E7
:1023600005050600007080808870050707060000DC
:10237000080878888888780505050600007088F0C8
:102380008070050707060000304840E040404005E7
:1023900007070600FE70888888780870050707061A
:1023A00000008080F08888888803070706010040C5
:1023B00000C0404040E00409090601FE1000301052
:1023C000101010906005070706000080808890E0DC
:1023D0009088030707060100C04040404040E005E8
:1023E0000505060000D0A8A8A8A805050506000058
:1023F000B0C8888888050505060000708888887040
:102400000507070600FEF0888888F080800507072A
:102410000600FE788888887808080505050600000B
:10242000B0C880808005050506000078807008F03F
:102430000507070600002020F820202018050505C4
:1024400006000088888898680505050600008888C9
:102450008850200505050600008888A8A8500505B5
:102460000506000088502050880507070600FE88F2
:10247000888850204080050505060000F81020409F
:10248000F80309090601FF204040408040404020F9
:102490000109090602FF808080808080808080039F
:1024A00009090601FF80404040204040408005036C
:1024B0000306000248A890FF2020506C616E6E65F4
:1024C0007242756666657242797465733A200020BF
:1024D00046726565204D656D6F72793A2000436FD5
:1024E0006D70696C65643A204A756E20313820320F
:1024F0003032300A00204C6173742055706461746E
:1025000065643A20323032302D30362D3136207C21
:1025100020417574686F723A20285472697374612F
:102520006E50656572732C20456E6465722D352082
:1025300050726F290A006275676669782D322E30F5
:102540002E780A004D61726C696E0020536F6674BC
:10255000776172652052657365740A002057617453
:102560006368646F672052657365740A0020427265
:102570006F776E206F75742052657365740A002042
:1025800045787465726E616C2052657365740A00DB
:10259000506F77657255700A00456E6473746F7082
:1025A00073002553202563202563202563202563A0
:1025B00000656E6473746F7073206869743A2000EC
:1025C0002062797465733B2063726320004E6F2034
:1025D000454550524F4D2E0A00454550524F4D2013
:1025E0006461746173697A65206572726F722E0A14
:1025F000002073746F7265642073657474696E670C
:1026000073207265747269657665642028002028DD
:1026100063616C63756C6174656429210A00202113
:102620003D2000454550524F4D20435243206D6997
:10263000736D61746368202D202873746F726564F4
:102640002920002053697A653A2000496E64657834
:102650003A2000204D61726C696E3D563830290A6F
:1026600000454550524F4D2076657273696F6E205C
:102670006D69736D617463682028454550524F4DF4
:102680003D0048617264636F6465642044656661FF
:10269000756C742053657474696E6773204C6F6138
:1026A0006465640A003B20000000FA430000FA431E
:1026B0000000A0400000C8410000A0420000A0426D
:1026C000000048440000BA42F4010000F401000098
:1026D0006400000088130000456E636C6F737572B0
:1026E0006500205A3A200020593A200042656420B3
:1026F000583A20005072696E742050617573656499
:102700000050726F62696E67204661696C65640A89
:102710000050726F62696E67204661696C65640083
:10272000486F6D6520257325732573204669727384
:102730007400220A00556E6B6E6F776E20636F6DAA
:102740006D616E643A202200456E6465722D3520FD
:1027500050726F2052656164792E005072696E74F8
:10276000696E672E2E2E0000A6D411241FBECFEF57
:10277000D0E4DEBFCDBF12E0A0E0B1E0ECE7F6ECC4
:1027800001E00BBF02C007900D92AE30B107D9F740
:102790002EE0AEE0B2E001C01D92AA3DB207E1F723
:1027A00013E1C5EBD3E104C02197FE010E94DFE0F5
:1027B000C43BD107C9F70E94FFD00C943CE30C94B2
:1027C00000002F923F924F925F926F927F928F9272
:1027D0009F92AF92BF92CF92DF92EF92FF920F93B0
:1027E0001F93CF93DF93CDB7DEB7A2970FB6F894C0
:1027F000DEBF0FBECDBF20910D032AA381E08093E1
:102800000D0380910C038D3409F4B4C3843511F4A5
:102810000C94B923873411F00C94D42380910A03CB
:1028200090910B038D31910509F430C18CF4843003
:10283000910509F4DDC01CF4029790F197C385312E
:10284000910511F40C94D6234C9709F40FC18EC353
:102850008A35910509F4EEC144F48E31910509F4ED
:1028600029C18A9709F45BC281C38B35910509F4AC
:10287000E5C18C35910509F079C371E8272E71E027
:10288000372EE4E9EE2EE2E0FE2EA1E6B1E0BF8BAA
:10289000AE8BF2E7CF2EF4E0DF2E00E010E00FC2A7
:1028A00080910803813011F00C94D623B8EFCB2E21
:1028B000B2E0DB2E11E6E12E11E0F12E02E7A02EB0
:1028C00004E0B02E10E088E5810F0E94F63A8823DC
:1028D00019F10E949A382B013C01812F0E947A4BFA
:1028E000882351F0D7012D913D914D915C91C30109
:1028F000B2010E94E9E009C0F501208131814281E5
:102900005381C301B2010E94E8E0D6016D937D932B
:102910008D939C9313970AC0F70180819181A281C6
:10292000B381F60180839183A283B3831F5FF4E0B8
:10293000CF0ED11C24E0E20EF11C34E0A30EB11C3A
:10294000133009F685E40E94F63A882301F10E94CB
:102950009A386B017C0183E00E947A4B882371F0E6
:1029600020916D0130916E0140916F015091700185
:10297000C701B6010E94E9E06B017C01C09204032B
:10298000D0920503E0920603F092070310C08091F5
:102990006D0190916E01A0916F01B09170018093D3
:1029A000040390930503A0930603B093070340E04C
:1029B00050E0BA0186E40E948E4120E030E0A90197
:1029C0000E946CE2181684F40E949A3820E030E0ED
:1029D00040E752E40E946CE160937B0170937C01BC
:1029E00080937D0190937E010E943D540C94D623E8
:1029F00080E50E94F63A882329F00E94D34B6B01B0
:102A00007C0103C0C12CD12C760183E50E94F63AEB
:102A1000882361F00E949A3820E030E04AE754E4CD
:102A20000E9458DA0E94E5E16B017C010E9485A4B6
:102A30008091A302811105C060E088E197E00E94C7
:102A4000A6710E945EB5C60ED71EE81EF91E0E9432
:102A50005EB5DC01CB018C199D09AE09BF09B7FD3C
:102A600002C00C94D6230E946432F1CF8091A2025E
:102A70008770873011F00C94E92360E08FE40E94A6
:102A80001E3B81110C94D6230C94E9230E9431C97A
:102A900081110C94D6238091BE0E882311F40C94DE
:102AA0001D2660E08FE40E941E3B81110C94D6230A
:102AB0000C941D262091A50E3091A60E4091A70ED4
:102AC0005091A80E60916101709162018091630143
:102AD000909164010E94E9E0AB01BC0188E50E948D
:102AE0008E4169837A838B839C832091A90E3091D8
:102AF000AA0E4091AB0E5091AC0E609165017091A1
:102B0000660180916701909168010E94E9E0AB0144
:102B1000BC0189E50E948E416D837E838F839887F7
:102B2000BE016B5F7F4FCE0101960E94B3368823B2
:102B300011F40C94D62380E00E94C62A0E94D0573C
:102B400061E085E40E941E3B21E0482FBE016B5FDF
:102B50007F4FCE0101960E9490C96B017C019B01C1
:102B6000AC010E94EAE281115FC089809A80AB804B
:102B7000BC8020E030E0A901C501B4010E94F2D977
:102B800087FF05C027E137EB41E558EB04C027E19B
:102B900037EB41E558E3C501B4010E94E9E0AB0120
:102BA000BC018CEE96E20E942C328D809E80AF801C
:102BB000B88420E030E0A901C501B4010E94F2D937
:102BC00087FF05C027E137EB41E558EB04C027E15B
:102BD00037EB41E558E3C501B4010E94E9E0AB01E0
:102BE000BC0187EE96E20E942C3220E030E0A90181
:102BF000C701B6010E94F2D987FF05C067E177EBF4
:102C000081E598EB04C067E177EB81E598E3A701E4
:102C100096010E94E9E0AB01BC0182EE96E20E94BF
:102C20002C328AE00E94822F0E94B7570E9461597D
:102C30000C94D623109209030C94D6238FE0809332
:102C400009030C94D6230E949A382B013C011330BF
:102C500049F0D6012D913D914D915C910E94E8E0A3
:102C60002B013C01EE89FF89208131814281538112
:102C7000C301B2010E94E8E04B015C012DEB37E398
:102C800046E855EB0E946CE287FD21C02DEB37E34F
:102C900046E855E3C501B4010E94F2D91816BCF00C
:102CA0001F5FF4E0EF0EF11C2E893F892C5F3F4F30
:102CB0003F8B2E8B34E0C30ED11C143031F1F10167
:102CC00081911F010E94F63A882351F3BCCF133043
:102CD00051F440926D0150926E0160926F017092BA
:102CE000700101E0DDCFA5019401D7016D917D91C7
:102CF0008D919C910E94E9E0F7016083718382834A
:102D00009383812F0E94ECA8CBCF002321F08DE686
:102D100091E00E9463A70E9461590C94D623809190
:102D20000803813011F00C94D62389E40E94F63A0E
:102D3000E82E882321F00E949638082F01C000E079
:102D40008AE40E94F63AF82E882321F00E949638F1
:102D5000182F01C010E0EE2011F0033020F4FF2006
:102D600041F0133030F08FEB96E00E94892F0C94E5
:102D7000D62380E1E1E6F1E0A8EFB2E001900D9208
:102D80008A95E1F7EE2019F1602F000F770B880B81
:102D9000990B0E94F9D920918402309185024091CB
:102DA0008602509187020E9458DA20918C0230915D
:102DB0008D0240918E0250918F020E94E9E0609353
:102DC000F8027093F9028093FA029093FB02FF20BD
:102DD00019F1612F110F770B880B990B0E94F9D90C
:102DE000209188023091890240918A0250918B0291
:102DF0000E9458DA20919002309191024091920203
:102E0000509193020E94E9E06093FC027093FD02EE
:102E10008093FE029093FF0260E080E50E941E3BDB
:102E20008823C1F1EE20D1F02091A50E3091A60E9D
:102E30004091A70E5091A80E6091F8027091F9028E
:102E40008091FA029091FB020E94E8E06093F80200
:102E50007093F9028093FA029093FB02FF20D1F065
:102E60002091A90E3091AA0E4091AB0E5091AC0E5C
:102E70006091FC027091FD028091FE029091FF0230
:102E80000E94E8E06093FC027093FD028093FE02D2
:102E90009093FF0240E050E0BA0186E40E948E4128
:102EA0006B017C0120E030E0A9010E946CE2181661
:102EB0005CF420E030E040E752E4C701B6010E9434
:102EC0006CE16B017C0103C0C12CD12C7601809098
:102ED0007B0190907C01A0907D01B0907E0120E06C
:102EE00030E0A901C701B6010E94F2D9882341F060
:102EF000C0927B01D0927C01E0927D01F0927E0134
:102F0000009121011091220184E690E0909322012A
:102F100080932101C0903401D0903501E0903601BA
:102F2000F090370180E090E0A0E8BFE380933401A7
:102F300090933501A0933601B09337010E943D5420
:102F400080927B0190927C01A0927D01B0927E01E3
:102F50001093220100932101C0923401D0923501D7
:102F6000E0923601F09237010C94D6230E9423C9D7
:102F70000C94D62380910A0390910B038937910515
:102F800009F402C60CF0A7C08C35910509F49EC463
:102F90000CF055C08B34910509F4CCC2FCF482319D
:102FA000910509F443C46CF497FF02C00C94B62356
:102FB000823091050CF448C1419709F4A5C10C94E5
:102FC000B6238A32910509F46AC28934910509F45D
:102FD0007FC24F9711F00C94B623B3C1823591058F
:102FE00009F416C404F58D34910509F4BCC20CF43F
:102FF000A5C28135910511F00C94B6230E9488AECC
:103000000E94C76E0E9495A40E94934B68EE73E0E5
:1030100080E090E00E94EC2C60E080E396E00E946B
:10302000A6710C94D6238435910509F4FFC30CF4E2
:10303000F6C38535910509F426C40C94B6238F3662
:10304000910509F414C3C4F48B36910509F4F2C256
:1030500064F48936910509F4B2C20CF0C4C2883612
:10306000910509F484C20C94B6238D36910509F4B8
:10307000A2C20CF447C3E8C28337910509F4B9C46E
:103080006CF48137910509F447C30CF0ABC441E0FF
:1030900060E070E088E496E00E94B32F86379105E7
:1030A00009F433C534F48537910509F41AC50C9435
:1030B000B6238737910509F464C58837910511F067
:1030C0000C94B62381E08093A1028093A0020E9419
:1030D000435A0C94D6238D32A1E09A0711F40C9434
:1030E000AD210CF04EC08C3C910509F43BC60CF5AB
:1030F0008E3B910509F461C374F48139910509F49B
:103100004AC58B39910509F45CC38C38910511F0DF
:103110000C94B6232BC3893C910509F4DEC58B3C86
:10312000910509F400C6883C910511F00C94B62372
:103130008DC58C3D910509F440C764F48E3C910522
:1031400009F457C60CF442C6833D910509F46FC6D5
:103150000C94B623823E910509F4ACC734F48D3D3E
:10316000910509F451C70C94B6238831E1E09E071C
:1031700009F4EBC78232914011F40C943C210C9479
:10318000B623853A21E0920711F40C9481227CF554
:103190008139A1E09A0711F40C94742294F48F32CF
:1031A000E1E09E0711F40C94712214F40C942D228A
:1031B0008039914011F00C94B6230E9485A40C94A0
:1031C000D6238A3931E0930709F4A2C2843AA1E0F8
:1031D0009A0711F40C947E228239914011F00C94DC
:1031E000B6230E94AA360E9461590C94D623863FCA
:1031F000E1E09E0711F40C945A2384F4843F21E00B
:10320000920711F40C94542314F00C9457238C3A25
:10321000914011F40C94F8220C94B623883FB1E04D
:103220009B0711F40C94662314F40C945D238335EE
:10323000F3E09F0711F40C947723873E934011F439
:103240000C94A8230C94B62380E50E94F63A8823B8
:1032500029F00E94D34B6B017C0103C0C12CD12CFF
:10326000760183E50E94F63A882361F00E949A383D
:1032700020E030E04AE754E40E9458DA0E94E5E199
:103280006B017C010E9485A480918202909183024F
:10329000009739F02091B10E211108C00E9477717A
:1032A00005C060E08CEA96E00E94A67110910D03C3
:1032B00083E080930D0381E080938102C114D104E7
:1032C000E104F10431F00E945EB5C60ED71EE81E7F
:1032D000F91E80918102882311F40C942426C114D4
:1032E000D104E104F10411F40C9420260E945EB58F
:1032F000DC01CB018C199D09AE09BF09B7FF02C0E3
:103300000C9420260C94242680917D0284FF02C018
:103310000C942B2680917F0287FF02C00C942B26F1
:1033200080918002837011F00C942B2660E083EA78
:1033300096E00E94A6715E985E9815985E980C942F
:10334000D6230E94786E7B018C0120E831E541E0B4
:1033500050E00E9448E0C9016DE671E00E94B7E0CC
:103360004B015C01C801B70120E13EE040E050E0C4
:103370000E9448E0CA01B90128E130E040E050E095
:103380000E9448E0762E672EC62ED72E6CE3262E9E
:10339000312C412C512CC801B701A20191010E948E
:1033A00048E0F62EE72ECA01B901A20191010E9460
:1033B00048E0CB018E010F5F1F4F8114910499F0FB
:1033C000EF92FF927F936F936F927F92BF92AF9233
:1033D0009F928F9282E896E09F938F931F930F9313
:1033E0000E948AD913C0A114B104B1F0EF92FF92E8
:1033F0007F936F936F927F92BF92AF9286E896E031
:103400009F938F931F930F930E948AD90FB6F894BE
:10341000DEBF0FBECDBF30C0CD2879F0EF92FF9256
:103420007F936F936F927F928AE896E09F938F933A
:103430001F930F930E948AD9E9CF892B69F0EF92ED
:10344000FF927F936F938EE896E09F938F931F93E5
:103450000F930E948AD9DACFEF92FF9282E996E029
:103460009F938F931F930F930E948AD90F900F9071
:103470000F900F900F900F908091B10E811103C0AB
:10348000C8010E9477710E94AF2FB80186E996E0CB
:103490000E94982F8AE00E94822F0C94D6236FEF0F
:1034A0007FEF80E50E94033B8C0197FF02C00C94E4
:1034B000D623E82E60E089E40E941E3B81110C9423
:1034C0003D26802F0E9423CE811111C60C943D26EB
:1034D00080E50E94D1388823A1F00E949A3820E02C
:1034E00030E048EC52E40E9458DA0E94E5E1603195
:1034F00087E2780710F060E177E2709378026093DA
:10350000770282E50E94D138882311F40C94D623E7
:103510000E94D34B9B01AC01ACE3B0E00E9489E078
:103520006093790270937A0280937B0290937C027D
:103530000C94D6230E94102D0C94D6238091B50EA6
:10354000813011F00C94D62382E08093B50E0E9456
:103550005EB56093730270937402809375029093CA
:1035600076020C94D6230E94C76E0C94D6238091C9
:103570005E0983FF02C00C94D6230E94614987FF35
:1035800002C00C94D62383E50E94F63A882379F092
:103590000E949A380E94DEE1CB010E945AAC0E9440
:1035A00075AE811104C00E94C76E0E9412C90E94AC
:1035B000DBA30C94D6230E948A490C94D6230E9444
:1035C0006149182F87FD0AC087E792E00E94892F82
:1035D000812F0E946AAC8AE00E94822F9AA1909368
:1035E0000D030C94942860E080E50E94123B811149
:1035F0000C94D62381E40E94D138882329F060916D
:103600009A04062F10E002C00FEF10E083E50E943D
:10361000F63A882349F00E9462388B016F3F7105AA
:1036200019F010F00FEF10E0B80180E00E94DD7A91
:103630000C94D62360E080E50E94123B60E070E0CD
:103640000E94DD7A0C94D6238EE40E94F63A8823F9
:1036500011F40C94D6230E94623860936F02709329
:10366000700280937102909372020C94D62383E5CA
:103670000E94D138882331F060E083E50E94123B3C
:1036800080935E090E94AF2F8AE596E00E94892F01
:1036900080915E09882369F15DE2E52E57E0F52E01
:1036A00000E010E020E080915E0990E0A0E0B0E052
:1036B000002E04C0B695A795979587950A94D2F7E2
:1036C00080FF0EC0DD24D394D20E222319F08CE2A9
:1036D0000E94822FF701859194910E94892F2D2DB0
:1036E0000F5F1F4FA2E0EA0EF11C05301105D9F65D
:1036F00004C086E596E00E94892F8AE00E94822F0E
:103700000C94D62310928102109220010C94D6239F
:103710000E944E2D0C94D62383E50E94F63A88230E
:1037200081F00E947238282F30E02D33310524F4C7
:1037300080931F010C94D6238CE380931F010C947B
:10374000D6230E94AF2FC0901F01D12CE12CF12C69
:1037500081E496E00E94892F4AE0C701B6010E94E9
:1037600089308AE00E94822F0C94D62380915E09D2
:1037700083FF02C00C94D62383E50E94F63A882387
:1037800011F40C94D6230E949A380E94DEE163372C
:10379000710514F063E770E070936D0260936C0242
:1037A0000E94BBAA0E9475AE81110C94D6230E9480
:1037B000C76E0E9412C90C94D6230E94A2450C9495
:1037C000D62383E50E94F63A882311F40C94D6237D
:1037D0000E947238182F90E0CD970CF01CE31093E4
:1037E00063020E945EB56B017C01212F30E0A8EEE0
:1037F000B3E00E949CE0C60ED71EE81EF91EC092E0
:103800005F02D0926002E0926102F0926202CEC743
:10381000809109038F7D806180930903C7C78091E0
:1038200009038F7E806280930903C0C783E50E94ED
:10383000F63A882399F00E949A3820E030E04AE76F
:1038400054E40E9458DA0E94E5E160931B017093F2
:103850001C0180931D0190931E01A8C780917D02D9
:1038600084FF02C00C94742680917F0287FF02C0FF
:103870000C94742680918002837011F00C9474264D
:103880000E9495A493C783E50E94D138882309F448
:103890008DC70E945EB560935B0270935C0280935B
:1038A0005D0290935E020E949A3820E030E04AE781
:1038B00054E40E9458DA0E94E5E160935702709345
:1038C00058028093590290935A0270C70E9461492E
:1038D00087FD6CC790917D0294FD04C090917F029A
:1038E00097FF0AC031E8C32E31E0D32E4FE5E42E16
:1038F00049E0F42E10E009C090918002937091F796
:10390000682F81E00E94984B51C7F60181916F01A9
:103910000E94F63A882309F45BC0133009F04FC0C7
:103920000E949A384B015C0120E030E040EA51E40B
:103930000E94F2D987FF3AC0A501940160917F09E6
:103940007091800980918109909182090E946CE1B7
:103950002B013C019B01AC0160918F097091900992
:1039600080919109909192090E9458DA60938F0991
:1039700070939009809391099093920960918E04BD
:1039800070918F0480919004909191040E94F7D9D6
:10399000A30192010E9458DA0E94E5E160938E042F
:1039A00070938F04809390049093910480927F0988
:1039B00090928009A0928109B092820909C00E9468
:1039C0009A38D70154966D937D938D939C93579716
:1039D0001F5FB4E0EB0EF11C143009F096CF0E948B
:1039E00061A4E4C60E94506D8FE49DE00E94F97AC4
:1039F000DDC684E595E00E94892F60E084E495E0CF
:103A00000E94474960E08FE295E00E94474961E0EB
:103A10008FE590E10E94474961E084E295E00E94D1
:103A2000474961E084E195E00E94474960E08BE00E
:103A300095E00E94474961E081E095E00E94474996
:103A400061E087EF94E00E94474961E08FEE94E0E7
:103A50000E94474961E081EE94E00E94474961E09D
:103A600083ED94E00E94474960E084EC94E00E947A
:103A7000474960E086EB94E00E94474960E080EAB5
:103A800094E00E94474960E08FE894E00E94474933
:103A900060E080E894E00E94474960E089E794E0B4
:103AA0000E94474960E084E694E00E94474960E054
:103AB00086E594E00E94474961E083E494E00E9437
:103AC000474960E086E394E00E94474961E089E26B
:103AD00094E00E94474960E085E194E00E944749F4
:103AE00065C68091820290918302009759F0FC0193
:103AF0002081222339F02091B10E211157C60E9456
:103B0000777154C60E9412C951C600918202109169
:103B1000830294E0F12C40E0915031F1D8018C9176
:103B2000282F2B7F213429F411962C912133E1F495
:103B300008C08035C9F4F801818180538A3048F08B
:103B400013C0813421F0853421F441E002C0FF2408
:103B5000F39498012E5F3F4F89012F5F3F4FD801AB
:103B60008C918032C9F3D8CF41110E94AF2FFF2032
:103B700021F081E194E00E94892FC8010E94433224
:103B800015C60E94F45912C61092A1021092A0020A
:103B90000E94435A0BC660E070E083E50E94033B3D
:103BA0008C011127023011053CF00E94AB2F8FEEE3
:103BB00093E00E94892FFAC588E40E94F63A882390
:103BC000A9F00E9496388A3A91053CF08530B1E020
:103BD0009B072CF084E091E002C08AEA90E0F801B3
:103BE000EE0FFF1FED5AFD4F9183808386E40E9404
:103BF000F63A882381F00E94963897FD07C08F3FE0
:103C0000910529F024F08FEF90E001C080E0F801E9
:103C1000EF5AFD4F808382E40E94F63A882309F42C
:103C2000C5C50E9496388530910534F084379105DA
:103C30002CF083E790E002C085E090E0000F111FB8
:103C4000F801E35BFD4F91838083B0C50E94614919
:103C5000182F87FDABC500914C0284E40E94F63A10
:103C6000882311F40C9499260E949A386B017C01E8
:103C700020E030E0A9010E94F2D9882341F124E03C
:103C80001202F0011124E85BFD4FC082D182E28272
:103C9000F38220E030E0A90160914802709149026E
:103CA00080914A0290914B020E94F2D981110CC07E
:103CB00080E090E0A0EEBFE3809348029093490239
:103CC000A0934A02B0934B0201E00C94992680E045
:103CD00080934C020E94DCA169C50E94614987FD66
:103CE00065C5F1E8EF2EF1E0FF2E0FE519E0AFE634
:103CF000CA2EA9E0DA2ED7018D917D010E94D1381C
:103D0000882359F00E949A380E94E5E1F801608307
:103D10007183828393830E941AA40C5F1F4FC01685
:103D2000D10649F743C50E94614987FD3FC5E1E8D7
:103D3000EE2EE1E0FE2E0FE519E0D7018D917D0119
:103D40000E94D138882339F00E949A38F80164A380
:103D500075A386A397A30C5F1F4FF9E00F361F07CB
:103D600061F724C580917E0287FF02C00C949F26D4
:103D700080917F028E7011F00C949F2640919309E0
:103D80005091940960919509709196098FED93E097
:103D90000E942C324091970950919809609199099D
:103DA00070919A098CED93E00E942C3240919B090E
:103DB00050919C0960919D0970919E0989ED93E055
:103DC0000E942C328AE00E94822FF0C480917D02F2
:103DD00081FF02C00C94E52680917E0281FF02C023
:103DE0000C94E52680917F028C7011F00C94E526EE
:103DF000DDC47CE3E72E72E0F72E10E088E5810F4A
:103E00000E94D138882359F00E949A38D7016D93C7
:103E10007D938D939C931397812F0E94ECA81F5F35
:103E2000B4E0EB0EF11C133049F70C948B16409064
:103E30007204509073046090740470907504209123
:103E40000301309104014091050150910601C30125
:103E5000B2010E94E9E06E8B7F8B888F998F8090F2
:103E6000760490907704A0907804B0907904209123
:103E70000701309108014091090150910A01C501E3
:103E8000B4010E94E9E06A8F7B8F8C8F9D8FC09078
:103E90007A04D0907B04E0907C04F0907D04209123
:103EA0000B0130910C0140910D0150910E01C701A1
:103EB000B6010E94E9E06E8F7F8F88A399A32091BD
:103EC0000F01309110014091110150911201C30175
:103ED000B2010E94E9E02B013C01209113013091D5
:103EE00014014091150150911601C501B4010E94C1
:103EF000E9E04B015C0120911701309118014091DC
:103F0000190150911A01C701B6010E94E9E06B0145
:103F10007C010E94AF2F8AEA93E00E94892F83E5FB
:103F20000E94D138882321F00E94863880930201B4
:103F300080910201882319F081E99CE102C080E5AB
:103F400095E00E94892F82EA93E00E94892F4E8992
:103F50005F89688D798D82EC9EE00E942C324A8DBB
:103F60005B8D6C8D7D8D8DE89DE10E942C324E8D98
:103F70005F8D68A179A186E89DE10E942C3284E2E0
:103F80009AE10E94892F8AE993E00E94892FB30168
:103F9000A20182EC9EE00E942C32B501A4018DE8C2
:103FA0009DE10E942C32B701A60186E89DE10E94A6
:103FB0002C328AE00E94822FF9C383E50E94F63AF0
:103FC000882331F00E94963890932201809321013A
:103FD00080917D0290917E02A0917F02B09180023B
:103FE000892B8A2B8B2B09F0E1C360912101709101
:103FF000220186E993E00E941F3185E20E94822F10
:104000008AE00E94822FD2C30E946149F82E87FD68
:10401000CDC383E50E94F63A0F2D0F2C000C110B37
:10402000882369F10E949638F801EE0FFF1FE050D7
:10403000FF4F91838083000F111F000F111FF801A4
:10404000EC5CFE4F7F01BC01990F880B990B0E941D
:10405000F9D92AE037ED43E25CE30E9458DAF8012F
:10406000E85CFD4F20813181428153810E9458DA02
:10407000D7016D937D938D939C93139797C30E9463
:10408000AF2F85E40E94822F80E38F0D0E94822F44
:10409000000F111FF801E050FF4F608171818EE821
:1040A00093E00E941F3185E20E94822F8AE00E94E5
:1040B000822F7CC380E50E94D138882309F476C31F
:1040C00060E070E080E50E94033BF82E6FEF7FEF29
:1040D00083E50E94033B8C010196039708F066C3B9
:1040E000F7FC64C38F2D0E9423CE882339F00E94F1
:1040F000AB2F81E696E00E94892F58C30E9485A4C9
:1041000060E08F2D0E94A89E0F3FBFEF1B0731F08C
:104110000130110571F000E010E00DC08F2D0E94FC
:10412000509E31E020E0892B09F030E0032F122F60
:1041300002C001E010E08F2D0E94509E8017910771
:1041400009F434C30E946432F6CF80E50E94D1386E
:10415000882309F42BC30E9496388C01892B09F01F
:104160007FC083E50E94D138882389F00E94963869
:104170008F3FEFEF9E0729F483E39DE00E94732DAC
:1041800015C3BC0183E39DE00E94CE2D0FC30E94A6
:10419000AF2F60E070E086E893E00E941F318091CD
:1041A000350D28E532E06901C81AD10887FDD3949E
:1041B000CC0CDD1CCC0CDD1C0D2C000CEE08FF081B
:1041C0008091340D28E830E04901881A910887FD74
:1041D0009394880C991C880C991C092C000CAA0833
:1041E000BB088091330D8F3FC1F090E0FC01EE0FD2
:1041F000FF1F8E0F9F1FFC01E25FF24F2181328172
:1042000083E0220F331F8A95E1F794E036952795D6
:104210009A95E1F72E5F3F4F02C020E030E02F5F1C
:104220003F4FC901330FAA0BBB0B9C01AD012819ED
:1042300039094A095B09A4EBB0E00E9489E0A701B3
:104240009601281939094A095B090E946AE0B901F7
:1042500087EC90E10E941F318AE00E94822FA6C263
:104260000E94AB2FB80187E893E00E941F3189ECD0
:1042700096E00E94892F9AC28AE50E94F63A81113F
:1042800006C083E50E94F63A882309F44BC00E94D9
:104290009A3820E030E040E050EC0E94F2D987FDEF
:1042A000F3C50E949A3820E030E040E050E40E94DC
:1042B0006CE218160CF4E2C50E949A386B017C017E
:1042C0008091A30E8695869580FF22C020917B0960
:1042D00030917C0940917D0950917E09C701B6015A
:1042E0000E9458DA0E94DEE12091360230913702B6
:1042F000260F371F30933702209336022091340265
:1043000030913502620F731F70933502609334024F
:1043100080E50E94D138882309F4BCC50E94863804
:104320008111B8C580917F0287FDDAC58091800236
:10433000837009F0D5C50E94AF2F4091AD0E50910A
:10434000AE0E6091AF0E7091B00E87E793E00E94C1
:104350002C328AE00E94822F29C260E085E40E940C
:10436000123B811173C080E50E94D138882351F03F
:104370000E949A386093020D7093030D8093040D90
:104380009093050D89E40E94D138882381F00E9422
:104390009A382CEA35EC47E25EE30E9458DA6093E3
:1043A000060D7093070D8093080D9093090D84E41A
:1043B0000E94D138882381F00E949A382CEA35EC8B
:1043C00047E25EE30E946CE160930A0D70930B0D6F
:1043D00080930C0D90930D0D0E94AF2F4091020D14
:1043E0005091030D6091040D7091050D83E793E0EA
:1043F0000E942C322CEA35EC47E25EE36091060D18
:104400007091070D8091080D9091090D0E946CE14B
:10441000AB01BC018FE693E00E942C322CEA35EC14
:1044200047E25EE360910A0D70910B0D80910C0DD7
:1044300090910D0D0E9458DAAB01BC018BE693E020
:104440000E942C328AE00E94822FB0C10E94AB2FC2
:1044500089E593E00E94892FA9C183E50E94D138A4
:10446000182F882371F00E949A380E94DEE1709321
:1044700039016093380121E0672B09F020E0209397
:10448000AB0480E50E94D138882359F0209138018F
:1044900030913901232B11F00E9486388093AB04B0
:1044A00085C1111183C10E94AF2F86E493E00E9461
:1044B000892F8091AB04882319F08AE89BE102C020
:1044C0008DE293E00E94892F60913801709139014B
:1044D00085E393E00E941F3181E393E00E94892FDE
:1044E00065C10E94A54162C18091A40E81110C9406
:1044F0008B1681E00E94B4A20C948B160E941A398C
:1045000055C16FEF7FEF89E40E94033B082F6FEFE7
:104510007FEF8AE40E94033B182F8AE50E94F63A57
:10452000811108C081E50E94F63AB82E882309F46B
:10453000DDC401C0B12CA02E81E0800F843008F0D2
:1045400050C0912E81E0810F843008F04AC00E9453
:104550009A382B013C01F02E07FDF12C07FF02C019
:10456000A2E0AA2E812E17FD812C17FF02C0F2E0D7
:104570009F2EAF1408F41AC1E82C8F2D90E06C0127
:10458000CC0CDD1CC80ED91E9E1448F10E2D10E077
:10459000BB2071F0F601E00FF11FEE0FFF1FEE0FD1
:1045A000FF1FE05FFD4F208131814281538103C0B5
:1045B00020E030E0A9010C0D1D1D000F111F000FA0
:1045C000111F005F1D4FC301B2010E94E9E0D80135
:1045D0006D937D938D939C931397E394D5CFF39430
:1045E000C8CF0E94AB2F8FEB96E00E94892FDEC0D0
:1045F0000E9431C98111DAC001E217E0E1E6F1E081
:10460000FF8BEE8B9E012F5F3F4F19019FE4C92E58
:1046100097E0D92E7901C8010E94E34BAE89BF898A
:104620008D909D90AD90BD90BF8BAE8BA5019401F8
:104630000E94E8E02B013C01F701608371838283D3
:10464000938320E030E040EA51EC0E946CE287FD69
:104650000AC020E030E040EA51E4C301B2010E9408
:10466000F2D918162CF4F601849118160CF445C4EE
:10467000D7018D909D90AD90BD907D0120E030E000
:1046800040EA51ECC501B4010E946CE287FD40C4D0
:1046900020E030E040EA51E4C501B4010E94F2D9C3
:1046A00018160CF043C434C40E94DF717FC00E940E
:1046B0007EBD7CC00E945FB679C061E083E50E9448
:1046C0001E3B91E089270E941B5B70C081E08093B4
:1046D0000F020E9487B710920F02882309F466C068
:1046E0000E94AF2F86EC92E00E94892F5FC08091DC
:1046F0007F0287FD45C480918002837009F040C429
:104700004091A50E5091A60E6091A70E7091A80E33
:1047100087EB92E00E942C324091A90E5091AA0E94
:104720006091AB0E7091AC0E8DE89DE10E942C3231
:104730004091AD0E5091AE0E6091AF0E7091B00EE3
:1047400086E89DE10E942C328AE00E94822F2EC0D2
:1047500081E0809308031092B10E60E083E50E942F
:104760001E3B811123C00E94774720C00E9423C9AD
:104770001DC000910A0310910B030023B9F00E94A1
:10478000AF2F84E50E94822FB8017727072E000CF7
:10479000880B990B0E94033180E20E94822F89E5E9
:1047A00093E00E94892F02C00E9423C9E0910E026B
:1047B000F0E0E156F24F8081882339F087E792E0FC
:1047C0000E94892F8AE00E94822FFAA1F0930D03A4
:1047D000ABC40E9485A480E00E94C62A0E94D057E4
:1047E00081E08093A1020E94435A8AE50E94D13859
:1047F000382E8823A9F081E00E942A54182F82E0E5
:104800000E942A54BB24B394811101C0B12C111110
:1048100087C488E50E94D138182F811103C0FCC1DC
:10482000B12CF7CFB11007C089E50E94D138B82E5E
:10483000811308C0B12E3B10F2C1BB24B39411E028
:104840003324339480E1E1E6F1E0A8EFB2E0019097
:104850000D928A95E1F782E50E94F63A882361F08D
:104860000E949A386B017C0120E030E0A9010E948F
:10487000F2D98823D1F106C0C12CD12CA0EAEA2EAE
:10488000A0E4FA2E8091A30E82FD09C06091690117
:1048900070916A0180916B0190916C0103C060E09E
:1048A00070E0CB01A70196010E94E9E0609300034C
:1048B0007093010380930203909303032091690195
:1048C00030916A0140916B0150916C010E946CE241
:1048D00018165CF419821A821B821C82BE016F5F5B
:1048E0007F4F80E093E00E94B058112309F4DBC0B1
:1048F000BB2009F4D5C010926101109262011092A0
:104900006301109264011092650110926601109289
:104910006701109268010E945F59EFE4F7E084900C
:1049200083E497E00E94E34B6B017C0187E497E00E
:104930000E94E34B2B013C019B01AC01C701B60176
:104940000E946CE218162CF4A7019601C301B20173
:1049500004C0A3019201C701B6010E946CE16E8FF1
:104960007F8F88A399A3EBE3F7E085919591A591BB
:10497000B4918E8B9F8BA88FB98FE7E3F7E0859179
:104980009591A591B4918A8F9B8FAC8FBD8F9C011F
:10499000AD016E897F89888D998D0E946CE2181611
:1049A0002CF4AA8C0B8D1C8D9D8C04C0AE880F89B5
:1049B000188D998C2E8D3F8D48A159A1CA01B9013E
:1049C0000E9458DA20E030E040E85FE30E94E9E02E
:1049D0000E94AAE22A2D302F412F592D0E9458DA29
:1049E00069837A838B839C83E0E5F7E0149180915F
:1049F000690190916A01A0916B01B0916C018E8B5D
:104A00009F8BA88FB98F20E030E040EC5FE3C301BB
:104A1000B2010E9458DA2B013C01612F110F770B74
:104A2000880B990B0E94F9D99B01AC01C301B2011B
:104A30000E9458DA2B013C0120E030E040EC5FE3BB
:104A4000C701B6010E9458DA6B017C01682D880C01
:104A5000770B880B990B0E94F9D99B01AC01C70118
:104A6000B6010E9458DADE0111966D01EE88FF88CA
:104A7000088D198DA30192010E94EF570E94525A8E
:104A80001092610110926201109263011092640110
:104A900010926501109266011092670110926801F0
:104AA00080E00E940CA9BB2019F081E00E940CA9B3
:104AB000332009F4A3C080E00E94F93B8091A30E4B
:104AC0008370833051F060E08AE097E00E94A67125
:104AD0000E94AF2F8BEF96E0ADC00E945F5980918E
:104AE000690190916A01A0916B01B0916C018E8B6C
:104AF0009F8BA88FB98F2091A50E3091A60E409163
:104B0000A70E5091A80E60E070E08CED92E40E9438
:104B1000E8E04B015C016093F8027093F902809326
:104B2000FA029093FB022091A90E3091AA0E4091B7
:104B3000AB0E5091AC0E60E070E08CED92E40E9400
:104B4000E8E02B013C016093FC027093FD0280932E
:104B5000FE029093FF022091AD0E3091AE0E409177
:104B6000AF0E5091B00E6E897F89888D998D0E940D
:104B7000E8E0609300037093010380930203909335
:104B8000030327E137EB41ED58EBC301B2010E946B
:104B90006CE287FD46C027E030E04CE553E4C301FA
:104BA000B2010E94F2D91816E4F127E137EB41ED8A
:104BB00058EBC501B4010E946CE287FD32C027E0CA
:104BC00030E04CE553E4C501B4010E94F2D9181657
:104BD00044F119821A821B821C829E012F5F3F4F73
:104BE0006901EE88FF88088D198DA3019201C50126
:104BF000B4010E94EF5782E00E940CA90E945F5905
:104C00008091A0028093A1020E94B75783E0809315
:104C100023010E946159CACDB11014CE05CE1B2DBF
:104C200011CE60E08AEE96E00E94A6710E94AF2F3E
:104C300088ED96E00E94892FE1CF0E94B13CB6CD6D
:104C40000E9464320C9469191092810210930D0332
:104C50000E9412C9ABCD88E50E94D13881115E98BF
:104C600089E50E94D13881115E988AE50E94D13889
:104C7000882309F49BCD159899CD8DE40E94F63ACE
:104C80008823A9F00E947238813039F020F08230F8
:104C900049F462E003C060E001C061E0802F0E943F
:104CA000A89E05C080E796E00E94892F7FCD83E50E
:104CB0000E94F63A882309F479CD0E947238F82EC2
:104CC00034E0E31203C080939A0470CD61E0802F3A
:104CD0000E94A89E6F2D802F0E94799E6F2D70E0FC
:104CE000802F0E94E49E62CD0E9485A488E50E94E8
:104CF000D138882331F05E9A8091A30E8E7F809305
:104D0000A30E89E50E94D138882331F05E9A809104
:104D1000A30E8D7F8093A30E8AE50E94D13888234D
:104D200009F444CD159A8091A30E8B7F8093A30E36
:104D30003DCD602F83E50E941E3B0C94681E83E5E9
:104D40000E94F63A882391F00E949A386093930962
:104D500070939409809395099093960960939B09A9
:104D600070939C0980939D0990939E0980E50E9411
:104D7000F63A882351F00E949A3860939309709311
:104D80009409809395099093960982E50E94F63ADA
:104D9000882351F00E949A3860939709709398097C
:104DA0008093990990939A0984E50E94F63A8823A2
:104DB00009F4FCCC0E949A3860939B0970939C097B
:104DC00080939D0990939E09F1CC82E40E94D13892
:104DD000882351F00E94D34B60936F097093700940
:104DE000809371099093720983E50E94D1388823DA
:104DF00051F00E949A3860939F097093A0098093A4
:104E0000A1099093A20984E50E94D138882351F02A
:104E10000E949A386093A3097093A4098093A5090E
:104E20009093A6098AE40E94D138882309F4BECC65
:104E30000E949A386B017C012AE037ED43E25CE383
:104E40000E946CE287FD13C02AE939E949E95EE373
:104E5000C701B6010E94F2D918164CF0C0927E0428
:104E6000D0927F04E0928004F09281049FCC0E9453
:104E7000AB2F8AEB93E00E94892F98CCC12CD12CC8
:104E8000E12C10E4F12E1CCAC12CD12CE12CB0EC89
:104E9000FB2E16CAA70196016091AD0E7091AE0E61
:104EA0008091AF0E9091B00E0E94E9E06093AD0E3C
:104EB0007093AE0E8093AF0E9093B00E0E94AF2F02
:104EC0004091AD0E5091AE0E6091AF0E7091B00E4C
:104ED00087E793E00E942C328AE00E94822F22CA48
:104EE00082E50E94D138811126CA60CC0E94AB2F86
:104EF0008DE093E00E94892F59CCB7FAB094B7F8AF
:104F0000B094D7018D929D92AD92BC921397B0CB85
:104F10000E94AB2F8FEE92E00E94892F61E081EE1C
:104F200092E00E94A6710E94E2BE40CC0C5F1F4F2F
:104F3000BFEFCB1ADB0AEDE2F7E0E017F10709F06B
:104F40006ACB8CE3E82E82E0F82E10E0F10181912B
:104F50009191A191B1911F01F70181939193A19337
:104F6000B1937F01812F0E94ECA81F5F133071F76E
:104F70000E94615960E081ED92E00E94A67116CC1A
:104F8000F091A50EFE8B8090A60E7090A70E6090FB
:104F9000A80E5090A90E4090AA0E3090AB0E209013
:104FA000AC0EC090AD0ED090AE0EE090AF0EF09073
:104FB000B00E88E50E94F63A882361F10E949A3883
:104FC0005B018C0120E030E04CE553EC0E946CE288
:104FD00087FD0AC020E030E04CE553E4B501C8018C
:104FE0000E94F2D9181694F46CED70E084EA92E015
:104FF0000E941F316CED70E08FE992E00E941F313A
:105000008EE596E20E94892F10E005C0AE8A8B2CB7
:10501000702E612E11E089E50E94F63A882381F115
:105020000E949A38962EA72EB82E092F20E030E045
:105030004CE553EC0E946CE287FD0CC020E030E0B0
:105040004CE553E4692D7A2D8B2D902F0E94F2D9D7
:10505000181694F46CED70E08CE892E00E941F3119
:105060006CED70E08FE992E00E941F318EE596E2D0
:105070000E94892F10E004C0592C4A2C3B2C202E72
:105080008AE50E94F63A882339F10E949A386B012A
:105090007C0120E030E040EA51EC0E946CE287FDA8
:1050A0000AC020E030E040EA51E4C701B6010E94A6
:1050B000F2D918168CF46CEE7FEF8AE792E00E942A
:1050C0001F3164E170E08FE992E00E941F318EE5AC
:1050D00096E20E94892F6ACB112309F467CB8E894F
:1050E000982DA72DB62D8093A50E9093A60EA09374
:1050F000A70EB093A80E852D942DA32DB22D8093CD
:10510000A90E9093AA0EA093AB0EB093AC0EC092D2
:10511000AD0ED092AE0EE092AF0EF092B00E46CB36
:1051200081118BCB11E080CBA2960FB6F894DEBF35
:105130000FBECDBFDF91CF911F910F91FF90EF90E8
:10514000DF90CF90BF90AF909F908F907F906F90A7
:105150005F904F903F902F9008954F925F926F9283
:105160007F928F929F92AF92BF92CF92DF92EF92F7
:10517000FF920F931F93CF93DF93EC0120918C024A
:1051800030918D0240918E0250918F026881798119
:105190008A819B810E94E8E06B017C012091900252
:1051A0003091910240919202509193026C817D81E5
:1051B0008E819F810E94E8E04B015C01A70196016E
:1051C0006091260170912701809128019091290119
:1051D0000E94F2D9882309F466C0C0922601D092B9
:1051E0002701E0922801F09229012091A503309136
:1051F000A6034091A7035091A803C701B6010E94DE
:1052000058DA2B013C010E9414E26B017C0120E082
:1052100030E0A9010E94F2D987FD10C020E030E003
:1052200040E050E4C701B6010E946CE218164CF44D
:10523000C12CD12CE12C00E4F02E03C0C12CD12CC8
:105240007601A7019601C301B2010E94E8E02B019B
:105250003C0120E030E0A9010E94F2D987FD09C09D
:1052600040929D0350929E0360929F037092A00310
:1052700008C010929D0310929E0310929F031092FB
:10528000A003C701B6010E94DEE160939B03062ED6
:10529000000C770B6F5F7F4F6230710514F062E096
:1052A00070E060939903A501940160912A017091C7
:1052B0002B0180912C0190912D010E94F2D9D09167
:1052C0002401C0919B03811103C0DC1367C0B8C0E7
:1052D00080922A0190922B01A0922C01B0922D0174
:1052E0002091A9033091AA034091AB035091AC03E4
:1052F000C501B4010E9458DA4B015C010E9414E21E
:105300006B017C0120E030E0A9010E94F2D987FD09
:1053100010C020E030E040E050E4C701B6010E9438
:105320006CE218164CF4C12CD12CE12C10E4F12EB7
:1053300003C0C12CD12C7601A7019601C501B4018F
:105340000E94E8E04B015C0120E030E0A9010E94EE
:10535000F2D987FD09C08092A1039092A203A09286
:10536000A303B092A40308C01092A1031092A20359
:105370001092A3031092A403C701B6010E94DEE1BC
:1053800060939C03062E000C770B6F5F7F4F62309B
:10539000710514F062E070E060939A0320919C0321
:1053A000DC137BC080912501821377C08090A1031C
:1053B0009090A203A090A303B090A4032091910326
:1053C000309192034091930350919403C501B4012D
:1053D0000E9458DA209195033091960340919703EB
:1053E000509198030E94E9E06B017C016093850372
:1053F0007093860380938703909388032091890399
:1054000030918A0340918B0350918C03C501B40104
:105410000E9458DA20918D0330918E0340918F03C2
:10542000509190030E94E9E0A70196010E94E8E0F4
:10543000609381037093820380938303909384032A
:105440002091810330918203409183035091840322
:1054500060919D0370919E0380919F039091A003A2
:105460000E9458DA2091850330918603409187038A
:10547000509188030E94E9E0DF91CF911F910F9135
:10548000FF90EF90DF90CF90BF90AF909F908F9064
:105490007F906F905F904F90089580919B039091C3
:1054A0009C0390932501809324018C2FCC0F990BA2
:1054B000C22F220FDD0B9C01220F331F820F931F7F
:1054C000FC01EC0FFD1FEE0FFF1FEE0FFF1FE05F53
:1054D000FD4F208131814281538120939503309388
:1054E0009603409397035093980300919A03002EDC
:1054F000000C110BFC01E00FF11FEE0FFF1FEE0F70
:10550000FF1FE05FFD4F60817181828193810E9466
:10551000E8E06093910370939203809393039093D8
:105520009403E09199030E2E000CFF0BCF01880F1E
:10553000991FE80FF91FCE0FDF1FCC0FDD1FCC0F17
:10554000DD1FC05FDD4F288139814A815B81209357
:105550008D0330938E0340938F0350939003E00F9D
:10556000F11FEE0FFF1FEE0FFF1FE05FFD4F608189
:105570007181828193810E94E8E060938903709336
:105580008A0380938B0390938C0310CFCF93C82F03
:10559000882379F020E030E0A901609184027091C5
:1055A000850280918602909187020E94F2D9882319
:1055B000F9F08091BE0EC817D9F00E9485A487E843
:1055C00091E00E94AD288091BE0E882339F081E6DB
:1055D00091E00E94A6A41092BE0E07C081E08093C5
:1055E000BE0E81E691E00E94A8A3CF910C945F5972
:1055F000CF9108958F929F92AF92BF92CF92DF92F8
:10560000EF92FF92C0908402D0908502E0908602D3
:10561000F090870220E030E0A901C701B6010E94A6
:10562000F2D9882359F0A701960160E070E080E884
:105630009FE30E946CE16B017C0103C0C12CD12C63
:1056400076018090880290908902A0908A02B090A2
:105650008B0220E030E0A901C501B4010E94F2D91B
:10566000882349F0A501940160E070E080E89FE3A1
:105670000E946CE103C060E070E0CB01C092A50322
:10568000D092A603E092A703F092A8036093A90327
:105690007093AA038093AB039093AC03FF90EF90B9
:1056A000DF90CF90BF90AF909F908F9008952F92F2
:1056B0003F924F925F926F927F928F929F92AF92A2
:1056C000BF92CF92DF92EF92FF920F931F93CF93EF
:1056D000DF93CDB7DEB72E970FB6F894DEBF0FBEBF
:1056E000CDBF182FF62E042FA22E282F30E03A8798
:1056F0002987862F90E09C878B87220F331FE985AF
:10570000FA852E0F3F1F3E872D87FC01E20FF31F06
:10571000EE0FFF1FEE0FFF1FE05FFD4F60817181F5
:10572000828193819B01AC010E94EAE2882309F403
:105730003AC1100F6F2D6A0D812F90E0DC01AA0F86
:10574000BB1FA80FB91FEB85FC85EA0FFB1FEE0FEF
:10575000FF1FEE0FFF1FE05FFD4FB080C180D280C2
:10576000E380100F812F90E0AC01440F551F480FCC
:10577000591FEB85FC85E40FF51FEE0FFF1FEE0FA1
:10578000FF1FE05FFD4FF080018112819380862F23
:1057900090E0ED85FE85E80FF91FEE0FFF1FEE0F7D
:1057A000FF1FE05FFD4F80807180628053806A0D33
:1057B00070E02D853E85260F371F220F331F220FE5
:1057C000331F205F3D4F3E872D87F9014080318098
:1057D000A2802380A80FB91FAA0FBB1FAA0FBB1F4F
:1057E000A05FBD4FFC91F98311962C9111972A83EC
:1057F00012963C9112973B8313968C918C83FA01FD
:10580000E60FF71FEE0FFF1FEE0FFF1FE05FFD4FCC
:1058100090819D8321812E8332813F83838188877C
:105820002F2D302F412F592D6F2D702F812F992D16
:105830000E94EAE2882321F0F12C00E010E0912C94
:105840002B2D3C2D4D2D5E2D6B2D7C2D8D2D9E2DCC
:105850000E94EAE2882319F0BF2C6801E92C242D6C
:10586000332D4A2D522D642D732D8A2D922D0E9499
:10587000EAE2882321F0412C312CA12C212C282D67
:10588000372D462D552D682D772D862D952D0E946F
:10589000EAE2882321F0842C732C6A2C522C2D816F
:1058A0003E814F8158856D817E818F8198850E94D0
:1058B000EAE2882321F01D821E821F821886298138
:1058C0003A814B815C8169817A818B819C810E94C4
:1058D000EAE2882341F09D819983EE81EA83FF818A
:1058E000FB8328852C8389859A85880F991FE985F4
:1058F000FA858E0F9F1F2B853C85820F931F880F83
:10590000991F880F991F805F9D4F9A8789872B2D3C
:105910003C2D4D2D5E2D6B2D7C2D8D2D9E2D0E94B1
:10592000E9E02F2D302F412F592D0E94E8E06B0127
:105930007C01282D372D462D552D682D772D862D50
:10594000952D0E94E9E0242D332D4A2D522D0E94E1
:10595000E8E09B01AC01C701B6010E94E9E06B01E0
:105960007C0129813A814B815C8169817A818B81BB
:105970009C810E94E9E02D813E814F8158850E94E3
:10598000E8E09B01AC01C701B6010E94E9E020E01C
:1059900030E040E450E40E946CE1E985FA856083E0
:1059A0007183828393832E960FB6F894DEBF0FBE69
:1059B000CDBFDF91CF911F910F91FF90EF90DF90BE
:1059C000CF90BF90AF909F908F907F906F905F909F
:1059D0004F903F902F900895CF92DF92EF92FF92D9
:1059E0006B017C0183E3C816D104E104F10470F07B
:1059F00082E3C81AD108E108F10862E370E080E0B0
:105A000090E00E94569F0E94B877ECCFC701B60184
:105A10000E94569FFF90EF90DF90CF900C94B87744
:105A20008091B50E823059F01092790210927A026C
:105A300010927B0210927C028130C9F408950E947A
:105A4000786E6093C4097093C5098093C6099093DA
:105A5000C70981E08093B50E0E945EB56093C809C6
:105A60007093C9098093CA099093CB0908950E9445
:105A7000AC6EEFCF5E9A8091A30E8E7F8093A30EC3
:105A80005E9A8091A30E8D7F8093A30E159A8091CC
:105A9000A30E8B7F8093A30E5E9A0895CF930E94EE
:105AA000B2A6C82F80913A0D8093390D8093380D9E
:105AB0008093370D84E68093360D0E94C5A680ED55
:105AC00093E090935D0980935C09C1110E94BFA689
:105AD00081E08093DE090E9485A48EEF0E94CF585A
